:03000000020800F3
:0C080000787FE4F6D8FD758118020847E7
:1009A30002140000011300011200011100021600DD
:0109B3000043
:0B09ED001209DD1209B812096280F83F
:1009B8000517E5177002051614FF120983E51330B1
:0309C800E0FB222F
:1009DD00D2AFD2A9438901758CFC758A18D28C22AD
:03000B0002088C5C
:10088C00C0E0C0F0C0D075D000C000C004C005C02E
:10089C0006C007758CFC758A180515E515700205E0
:1008AC0014FFAE147C037DE81208ECED4C7020F5BF
:1008BC0014F5150513E51375F03C84E5F07010F58F
:1008CC00130512E51275F03C84E5F07002F512D0B8
:1008DC0007D006D005D004D000D0D0D0F0D0E03274
:10094100AE07EE1392A27801EF08800103D8FD13E0
:1009510092A3AF067802EF08800103D8FD1392A499
:010961002273
:1009CB003F065B4F666D7D077F6F777C395E797174
:0209DB000140D9
:0809F800EF9009CB93F580227A
:0309B4000110002F
:06098300E4F510EF60191D
:1009890075F00A8485F018EF75F00A84FFAE10053A
:070999001074082EF8A618E7
:0309A00080E422CE
:10096200E4F518E518C395105016E4F580AF181297
:10097200094174082518F8E6FF1209F8051880E302
:010982002252
:10080C000209EDE493A3F8E493A34003F68001F20C
:10081C0008DFF48029E493A3F85407240CC8C333ED
:10082C00C4540F4420C8834004F456800146F6DFBC
:10083C00E4800B01020408102040809009A3E47EA0
:10084C00019360BCA3FF543F30E509541FFEE493B1
:10085C00A360010ECF54C025E060A840B8E493A378
:10086C00FAE493A3F8E493A3C8C582C8CAC583CAA3
:10087C00F0A3C8C582C8CAC583CADFE9DEE780BE5B
:0109B700003F
:1008EC00BC000BBE0029EF8DF084FFADF022E4CCF0
:1008FC00F875F008EF2FFFEE33FEEC33FCEE9DECB9
:10090C00984005FCEE9DFE0FD5F0E9E4CEFD22EDFE
:10091C00F8F5F0EE8420D21CFEADF075F008EF2F48
:10092C00FFED33FD4007985006D5F0F222C398FD39
:05093C000FD5F0EA22D6
:00000001FF
