:100910003F065B4F666D7D077F6F777C395E79712F
:03093800010810A3
:0D09200012088CE50990091093F58080F312
:1008FC00EF25E025E0FFC374FF9F52A0ED90091097
:03090C0093F580E0
:01090F0022C5
:0B092D00EF1FAC0670011E4C70F6229C
:10088C00E4F50D75900FE590640F605D7F107E2789
:10089C0012092DE590640F605075900FAF90EF2406
:1008AC00F5601024FE601114601324077012E4F537
:1008BC0009800D750901800875090280037509030B
:1008CC007590F0AF90EF2450601124E0601124F08B
:1008DC00601124707013850909800E7404800674ED
:1008EC00088002740C2509F5097FE87E0302092DA6
:03000000020800F3
:0C080000787FE4F6D8FD75810D020847F2
:10080C00020920E493A3F8E493A34003F68001F2D9
:10081C0008DFF48029E493A3F85407240CC8C333ED
:10082C00C4540F4420C8834004F456800146F6DFBC
:10083C00E4800B0102040810204080900938E47E0B
:10084C00019360BCA3FF543F30E509541FFEE493B1
:10085C00A360010ECF54C025E060A840B8E493A378
:10086C00FAE493A3F8E493A3C8C582C8CAC583CAA3
:10087C00F0A3C8C582C8CAC583CADFE9DEE780BE5B
:01093B0000BB
:00000001FF
