:10090E003F065B4F666D7D077F6F777C395E797131
:03093000010810AB
:1008D400E4F5091209297F107E2712091EE5081480
:1008E400FFAE090509EED39F4003E4F509AD09E421
:0608F400FF1208FA80E08B
:07092900D2A8D2AFD2882250
:0300030002088C64
:10088C00C0E0C0F0C083C082C0D075D000C000C032
:10089C0001C002C003C004C005C006C0077FE87ECB
:1008AC000312091EB2A07F107E2712091ED007D09A
:1008BC0006D005D004D003D002D001D000D0D0D0C7
:0808CC0082D083D0F0D0E032AD
:1008FA00EF25E025E0FFC374FF9F52A0ED90090E9B
:03090A0093F580E2
:01090D0022C7
:0B091E00EF1FAC0670011E4C70F622AB
:03000000020800F3
:0C080000787FE4F6D8FD758109020847F6
:10080C000208D4E493A3F8E493A34003F68001F226
:10081C0008DFF48029E493A3F85407240CC8C333ED
:10082C00C4540F4420C8834004F456800146F6DFBC
:10083C00E4800B0102040810204080900930E47E13
:10084C00019360BCA3FF543F30E509541FFEE493B1
:10085C00A360010ECF54C025E060A840B8E493A378
:10086C00FAE493A3F8E493A3C8C582C8CAC583CAA3
:10087C00F0A3C8C582C8CAC583CADFE9DEE780BE5B
:0109330000C3
:00000001FF
