:03000000020800F3
:0C080000787FE4F6D8FD75810A020847F5
:0108A900222C
:0308A500010A0045
:10088C00AF0A050AEFD394FA4009E4F50A7509F0AA
:03089C001208A996
:01089F002236
:0508A00012088C80FB32
:10080C000208A0E493A3F8E493A34003F68001F25A
:10081C0008DFF48029E493A3F85407240CC8C333ED
:10082C00C4540F4420C8834004F456800146F6DFBC
:10083C00E4800B01020408102040809008A5E47E9F
:10084C00019360BCA3FF543F30E509541FFEE493B1
:10085C00A360010ECF54C025E060A840B8E493A378
:10086C00FAE493A3F8E493A3C8C582C8CAC583CAA3
:10087C00F0A3C8C582C8CAC583CADFE9DEE780BE5B
:0108A800004F
:00000001FF
