:100866003F065B4F666D7D077F6F777C395E7971DA
:010876000081
:09088E007D0F7F0212085280F771
:10085200EF25E025E0FFC374FF9F52A0ED900866EC
:0308620093F5808B
:010865002270
:1008000075A0FF900866E493F580E4F5097508FB90
:10081000C3E5086480945F4038AF090509EF33955C
:10082000E0FE74662FF58274083EF583E493F5804C
:100830007F647E00120883E4F5808508A074FC259F
:1008400008F508D3E5096480949040C4E4F5098074
:01085000BFE8
:010851002284
:0B088300EF1FAC0670011E4C70F62247
:030000000208777C
:0C087700787FE4F6D8FD75810902088E38
:00000001FF
