:1008D5003F065B4F666D7D077F6F777C395E79716B
:0308F000010810EC
:10088C00E4F509AD09FF1208C120B1FD7F107E27E8
:10089C001208E50509E50814FFE509D39F4003E4B8
:1008AC00F5097F107E271208E530B1FDAD09E4FF94
:0508BC001208C180D408
:1008C100EF25E025E0FFC374FF9F52A0ED9008D50E
:0308D10093F5801C
:0108D4002201
:0B08E500EF1FAC0670011E4C70F622E5
:03000000020800F3
:0C080000787FE4F6D8FD758109020847F6
:10080C0002088CE493A3F8E493A34003F68001F26E
:10081C0008DFF48029E493A3F85407240CC8C333ED
:10082C00C4540F4420C8834004F456800146F6DFBC
:10083C00E4800B01020408102040809008F0E47E54
:10084C00019360BCA3FF543F30E509541FFEE493B1
:10085C00A360010ECF54C025E060A840B8E493A378
:10086C00FAE493A3F8E493A3C8C582C8CAC583CAA3
:10087C00F0A3C8C582C8CAC583CADFE9DEE780BE5B
:0108F3000004
:00000001FF
