:100BDB003F065B4F666D7D077F6F777C395E797162
:090BEB00403F3F3F3F3F3F3F3FC9
:100BF400021D0000021B0000021900000217000081
:030AA800120C0528
:100AAB0078087C007D007BFF7A0B79EC7E007F0859
:100ABB001208D07B007A007908751501AD18AC17B8
:100ACB00120B52900BEBE493F50A7B007A0079083A
:100ADB00751504AD1AAC19120B52900BEBE493F590
:100AEB000D7B007A007908751507AD1CAC1B120B3A
:0A0AFB00527B007A007908120B0705
:020B050080A4CA
:100C0500D2AFD2A9438901758CFC758A18D28C2282
:03000B00020B9A4B
:100B9A00C0E0C0F0C083C082C0D075D000C000C021
:100BAA0001C002C003C004C005C006C007758CFCA2
:100BBA00758A18120A3FD007D006D005D004D00390
:100BCA00D002D001D000D0D0D082D083D0F0D0E0F3
:010BDA0032E8
:100A3F00051EE51E7002051DFFAE1D7C037DE8122D
:100A4F00095EED4C7052F51DF51E051CE51C70027C
:100A5F00051BFFAE1B7C007D3C12095EED4C703810
:100A6F00F51BF51C051AE51A70020519FFAE197C66
:100A7F00007D3C12095EED4C701EF519F51A051834
:100A8F00E51870020517FFAE177C007D3C12095E5A
:090A9F00ED4C7004F517F5182266
:0A0B52008B108A1189128C138D1488
:050B5C007F01EF60388D
:100B6100AE13AF147C007D0A12095E8D16AE13AF71
:100B7100147C007D0A12095E8E138F14E516900B0A
:100B8100DB93AB10AA11A912AE1515158E827583D0
:060B91000012093CAF1444
:020B970080C517
:010B99002239
:070C1500AE071FEE70FA228A
:060B07008B108A11891217
:100B0D0075A0FF1208F6F580E4FD7CFBC3EC648054
:100B1D00945F4030AB10AA11A912AF050DEF3395BC
:100B2D00E08F82F58312090FF5807F64120C15E4B6
:100B3D00F5808CA074FC2CFCD3ED6480949040CC9B
:040B4D00E4FD80C87B
:010B51002281
:030000000209B33F
:0C09B300787FE4F6D8FD75811E0209FA79
:10080000E709F608DFFA8046E709F208DFFA803EDA
:1008100088828C83E709F0A3DFFA8032E309F608C7
:10082000DFFA8078E309F208DFFA807088828C832F
:10083000E309F0A3DFFA806489828A83E0A3F608E3
:10084000DFFA805889828A83E0A3F208DFFA804CBD
:1008500080D280FA80C680D4806980F28033801094
:1008600080A680EA809A80A880DA80E280CA8033FD
:1008700089828A83ECFAE493A3C8C582C8CCC58375
:10088000CCF0A3C8C582C8CCC583CCDFE9DEE78045
:100890000D89828A83E493A3F608DFF9ECFAA9F0C4
:1008A000EDFB2289828A83ECFAE0A3C8C582C8CC1A
:1008B000C583CCF0A3C8C582C8CCC583CCDFEADE33
:1008C000E880DB89828A83E493A3F208DFF980CC95
:1008D00088F0EF60010E4E60C388F0ED2402B4048E
:1008E0000050B9F582EB2402B4040050AF23234535
:0608F00082239008507302
:1008F600BB010689828A83E0225002E722BBFE0200
:09090600E32289828A83E4932232
:10090F00BB010CE58229F582E5833AF583E022509D
:10091F0006E92582F8E622BBFE06E92582F8E222E7
:0D092F00E58229F582E5833AF583E4932201
:10093C00F8BB010DE58229F582E5833AF583E8F0F1
:10094C00225006E92582C8F622BBFE05E92582C89D
:02095C00F22285
:10095E00BC000BBE0029EF8DF084FFADF022E4CC7D
:10096E00F875F008EF2FFFEE33FEEC33FCEE9DEC46
:10097E00984005FCEE9DFE0FD5F0E9E4CEFD22ED8C
:10098E00F8F5F0EE8420D21CFEADF075F008EF2FD6
:10099E00FFED33FD4007985006D5F0F222C398FDC7
:0509AE000FD5F0EA2264
:1009BF00020AA8E493A3F8E493A34003F68001F29C
:1009CF0008DFF48029E493A3F85407240CC8C33339
:1009DF00C4540F4420C8834004F456800146F6DF08
:1009EF00E4800B0102040810204080900BF4E47E99
:1009FF00019360BCA3FF543F30E509541FFEE493FD
:100A0F00A360010ECF54C025E060A840B8E493A3C3
:100A1F00FAE493A3F8E493A3C8C582C8CAC583CAEE
:100A2F00F0A3C8C582C8CAC583CADFE9DEE780BEA6
:010C040000EF
:00000001FF
