:040B2100020D0000C1
:070AD100D2A1120AD8C2A154
:080AD8007F017E02DEFEDFFA61
:010AE00022F3
:0D0AFF00D2A0120AD8120AD1C2A1020AD850
:0209FD00AD0744
:1009FF00E4FBFAEDC4131313540124FF92A0ED2569
:100A0F00E0FD120AD10BBB08EAD2A0120AD8D2A17C
:100A1F0030A00F0AEAD394C840F6C2A1120AD87FB9
:090A2F000022C2A1120AD87F01C5
:010A3800229B
:100A9700E4FDFCD2A0120AD8D2A1120AD8EC25E0B4
:100AA700FCA2A0E4334204120AD30DBD08EAAF0446
:010AB700221C
:100AB800AC05A907120AFF7FA01209FDAF011209B0
:090AC800FDAF041209FD020AE170
:020A7500AC07CC
:100A7700120AFF7FA01209FDAF041209FD120AFF37
:0F0A87007FA11209FD120A978F0F120AE1AF0F1C
:010A9600223D
:0F0AE100C2A0120AD8D2A1120AD8D2A0020AD8F3
:0A0B17003F065B4F666D7D077F6FA0
:030B2500010C00C0
:040AF0007FE87E031A
:0B0AF400EF1FAC0670011E4C70F622D4
:1009A00020B110120AF020B107AD0C7F01120AB875
:1009B00030B1FD20B010120AF020B0077F01120AFA
:1009C000758F0C30B0FD20B2247F647E00120AF4D3
:1009D00020B217050CAF0CEF3395E0FED3EF94FF78
:1009E000EE648094804003E4F50C30B2FD20B30C3B
:0D09F000120AF020B303E4F50C30B3FD2231
:10091700E50CFB3395E0FA7C037DE8AF03FE120894
:100927008C74172FF582740B3EF583E493F5087CDE
:10093700037DE8AF03AE0212088CAA04AB057D6401
:100947007C00AF03AE0212088C74172FF582740B6C
:100957003EF583E493F5097D647C00AF03AE021294
:10096700088CAA04AB057D0A7C00AF03AE0212080F
:100977008C74172FF582740B3EF583E493F50A7D8B
:100987000A7C00AF03AE0212088C74172DF582742F
:090997000B3CF583E493F50B22FF
:100A3900E4FDED14600E14601314601424037016A1
:100A4900D2A28002C2A2D2A3C2A4800AD2A28002E8
:100A5900C2A2C2A3C2A474082DF8E6F5807F647E01
:0B0A690000120AF4E4F5800DBD04C784
:010A7400225F
:0B0B0C001209A0120917120A3980F527
:03000000020800F3
:0C080000787FE4F6D8FD75810F020847F0
:10088C00C2D5EC30E709B2D5E4C39DFDE49CFCEE87
:10089C0030E715B2D5E4C39FFFE49EFE1208C2C335
:1008AC00E49DFDE49CFC80031208C230D507C3E430
:0608BC009FFFE49EFE22F6
:10080C00020B0CE493A3F8E493A34003F68001F2EB
:10081C0008DFF48029E493A3F85407240CC8C333ED
:10082C00C4540F4420C8834004F456800146F6DFBC
:10083C00E4800B0102040810204080900B21E47E20
:10084C00019360BCA3FF543F30E509541FFEE493B1
:10085C00A360010ECF54C025E060A840B8E493A378
:10086C00FAE493A3F8E493A3C8C582C8CAC583CAA3
:10087C00F0A3C8C582C8CAC583CADFE9DEE780BE5B
:010B280000CC
:1008C200BC000BBE0029EF8DF084FFADF022E4CC1A
:1008D200F875F008EF2FFFEE33FEEC33FCEE9DECE3
:1008E200984005FCEE9DFE0FD5F0E9E4CEFD22ED29
:1008F200F8F5F0EE8420D21CFEADF075F008EF2F73
:10090200FFED33FD4007985006D5F0F222C398FD63
:050912000FD5F0EA2200
:00000001FF
